S012000042617369635F57616C6B2E7372656342
S11300000C9472000C948F000C948F000C948F004D
S11300100C948F000C948F000C948F000C948F0020
S11300200C948F000C948F000C948F000C948F0010
S11300300C948F000C948F000C948F000C948F0000
S11300400C948F000C94F8000C943E010C947E01E7
S11300500C94BE010C948F000C948F000C948F00B0
S11300600C948F000C948F000C948F000C948F00D0
S11300700C948F000C948F000C948F000C948F00C0
S11300800C948F000C948F000C948F000C948F00B0
S11300900C948F000C948F000C948F000C948F00A0
S11300A00C948F000C948F000C948F000C948F0090
S11300B00C948F000C948F000C948F000C948F0080
S11300C00C948F000C948F000C948F000C948F0070
S11300D00C948F000C948F000C948F000C948F0060
S11300E00C948F0011241FBECFEFD1E2DEBFCDBF31
S11300F012E0A0E0B2E0E6E9FDE002C005900D9256
S1130100A030B107D9F722E0A0E0B2E001C01D920F
S1130110A432B207E1F70E94B1060C94C9060C940C
S113012000008FEF8DB91EB884B915B80895709882
S11301300895709A089571980895719A089572981F
S11301400895729A089573980895739A0895749807
S11301500895749A089575980895759A08957698EF
S11301600895769A089577980895779A0895289827
S11301700895289A089529980895299A08952A98FF
S113018008952A9A08952B9808952B9A08952C98E7
S113019008952C9A08952D9808952D9A08952E98CF
S11301A008952E9A08952F9808952F9A0895E1E8B6
S11301B0F0E0108280E78093850021E020938400A2
S11301C09FE8909389008FEF8093880090938B0031
S11301D080938A0010928D0010928C009093870077
S11301E080938600109280001092820020830895EC
S11301F01F920F920FB60F9211242F933F934F9398
S11302005F936F937F938F939F93AF93BF93EF937A
S1130210FF9380910302811102C00E949B00809190
S11302200302813011F40E949F0080910302823006
S113023011F40E94970080910302833011F40E940C
S1130240BB0080910302843011F40E94C7008091A6
S11302500302853011F40E94D300FF91EF91BF9106
S1130260AF919F918F917F916F915F914F913F914A
S11302702F910F900FBE0F901F9018951F920F9201
S11302800FB60F9211242F933F934F935F936F9365
S11302907F938F939F93AF93BF93EF93FF9380913B
S11302A00302811102C00E94A300809103028130E5
S11302B011F40E94A70080910302823011F40E947D
S11302C0B30080910302833011F40E94BF00809137
S11302D00302843011F40E94CB00FF91EF91BF918F
S11302E0AF919F918F917F916F915F914F913F91CA
S11302F02F910F900FBE0F901F9018951F920F9281
S11303000FB60F9211242F933F934F935F936F93E4
S11303107F938F939F93AF93BF93EF93FF938091BA
S11303200302811102C00E94AB008091030281305C
S113033011F40E94AF0080910302823011F40E94F4
S1130340B70080910302833011F40E94C3008091AE
S11303500302843011F40E94CF00FF91EF91BF910A
S1130360AF919F918F917F916F915F914F913F9149
S11303702F910F900FBE0F901F9018951F920F9200
S11303800FB60F9211242F933F934F935F936F9364
S11303907F938F939F93AF93BF93EF93FF9380E7E4
S11303A08093850081E080938400809103028F5FB5
S11303B080930302883018F01092030202C0811166
S11303C01EC00E949D000E94A5000E94AD00809165
S11303D01C02809389008091190280938800809187
S11303E0040280938B0080910D0280938A00809197
S11303F0100280938D0080910E0280938C00809176
S113040003028130F1F40E94A1000E94A9000E941D
S1130410B10080910B028093890080911E02809329
S113042088008091120280938B0080911302809344
S11304308A008091180280938D008091200280931D
S11304408C00809103028230F1F40E9499000E9492
S1130450B5000E94B90080911402809389008091B4
S11304602102809388008091170280938B008091F1
S1130470090280938A008091230280938D008091E9
S11304800C0280938C00809103028330F1F40E946B
S1130490BD000E94C1000E94C50080911A02809391
S11304A089008091150280938800809108028093CE
S11304B08B008091060280938A00809116028093BB
S11304C08D0080911B0280938C0080910302843004
S11304D0F1F40E94C9000E94CD000E94D1008091D5
S11304E022028093890080910F028093880080917A
S11304F00A0280938B0080911F0280938A0080916E
S11305001D0280938D008091110280938C00809154
S11305100302853051F40E94D50080910702809334
S113052089008091050280938800FF91EF91BF912B
S1130530AF919F918F917F916F915F914F913F9177
S11305402F910F900FBE0F901F901895809100026D
S1130550853B18F084EB80930002809100022BE825
S1130560829FC00111248255904780930102909389
S113057002020895809300020E94A6028091020262
S11305808093140280910102809321020895809344
S113059000020E94A6028091020280931C028091B4
S11305A00102809319020895809300020E94A6021A
S11305B08091020280930B028091010280931E02BB
S11305C00895809300020E94A60280910202809303
S11305D004028091010280930D0208958093000229
S11305E00E94A6028091020280931202809101026D
S11305F0809313020895809300020E94A6028091C2
S11306000202809310028091010280930E020895E9
S1130610809300020E94A602809102028093180235
S113062080910102809320020895809300020E9429
S1130630A6028091020280931702809101028093A6
S113064009020895809300020E94A602809102028A
S1130650809323028091010280930C020895809379
S113066000020E94A6028091020280931A028091E5
S11306700102809315020895809300020E94A6024D
S11306808091020280930802809101028093060205
S11306900895809300020E94A60280910202809332
S11306A016028091010280931B0208958093000238
S11306B00E94A6028091020280932202809101028C
S11306C080930F020895809300020E94A6028091F5
S11306D0020280930A028091010280931F0208950E
S11306E0809300020E94A6028091020280931D0260
S11306F080910102809311020895809300020E9468
S1130700A6028091020280930702809101028093E5
S113071005020895F8940E9491000E94D7008FE08A
S113072080936F00789408958AE50E94BA028EE55A
S11307300E94C70282E60E94D40284E50E94E1027C
S113074083E10E94EE0287EA0E94FB0285E50E9493
S1130750080388E50E9415038AE50E9422038DE5BB
S11307600E942F0387E50E943C038AE50E94490307
S113077086E90E9456038EE10E9463038AE50E9483
S113078070038AE50E947D032FEF3FEF80EE90E037
S11307902150304080409040D9F700C000000895B7
S11307A00F931F93CF93DF93CBE58C2F0E94BA0254
S11307B084E08C0F0E94C7028C2F0E94220383E0E6
S11307C08C0F0E942F0329E989E591E02150804094
S11307D09040E1F70000CF5FCC3639F72FEF8FE779
S11307E096E1215080409040E1F700C0000081E78D
S11307F00E942203C2E0D0E015EA05E502C01250CF
S11308002196802F8C1B0E94E102812F0E94FB0203
S11308108C2F895A0E94150386E696EE20E08150BB
S113082090402040E1F7C730D10539F481E60E94B9
S1130830BA0283E70E94C702E2CFC532D105FCF2B7
S1130840DF91CF911F910F9108957F928F929F9284
S1130850AF92BF92CF92DF92EF92FF920F931F93CA
S1130860CF93DF9388E50E94D40211E6C1E0D0E083
S11308700CE7C831D1051CF4812F0E94FB02802FA4
S11308808C1B0E941503CB30D10524F48C2F885A7D
S11308900E94D40286E696EE20E0815090402040EB
S11308A0E1F721961E5F193A21F7C1E0D0E00F2E3F
S11308B0F1E6DF2EF02D0F2EFBE6EF2EF02D0F2E9E
S11308C0FEE6FF2EF02D05E513E7C830D10524F42C
S11308D08D2D8C1B0E94BA02C231D10564F48E2D79
S11308E08C1B0E9422038F2D8C1B0E942F03802FB0
S11308F08C1B0E940803812F8C1B0E94C70229E9CC
S113090089E591E0215080409040E1F70000219674
S1130910C631D105D1F62FEF8FE796E12150804003
S11309209040E1F700C0000088E50E94D402C1E0D5
S1130930D0E00F2EFAE5EF2EF02D0F2EFEE5FF2E60
S1130940F02D0DE51E2D1C1B812F0E94BA028F2D48
S11309508C1B0E94C702812F0E942203802F8C1BB4
S11309600E942F03CA30D10524F48C2F885A0E9488
S1130970150389E999E521E0815090402040E1F791
S113098000002196C231D105E9F68FEF9FE726E1F9
S1130990815090402040E1F700C0000088E40E94AC
S11309A02F030F2EF9E5CF2EF02D0F2EF8E5DF2EB5
S11309B0F02D6894EE24E1F8F12CC1E0D0E00F2E84
S11309C0F5E1BF2EF02D0F2EF4E49F2EF02D0F2E07
S11309D0F1E68F2EF02D08C0B394B39421968FEFD7
S11309E0E81AF80AD394CA94AC2E8C2F8E590E941C
S11309F0D4028B2D0E94EE028E01C431D10524F461
S1130A00892D8C1B0E9408030C31110544F48CE8D9
S1130A108A0D0E94FB0280E38A0D0E94E1020A30E3
S1130A20110524F4882D8A190E9415030F3011052D
S1130A30A1F480E40E94BA028AE50E94C7028D2DC7
S1130A400E943C038C2D0E94490326E686EE90E02A
S1130A50215080409040E1F7BFCF8D2D0E943C0390
S1130A608C2D0E94490326E686EE90E021508040BA
S1130A709040E1F725E2E216F1040CF4ADCF8FEFDC
S1130A809FE726E1815090402040E1F700C000003C
S1130A90C1E0D0E008E51BE7C530D10524F48C2F74
S1130AA0855B0E94E102C430D10524F4802F8C1BA5
S1130AB00E941503812F8C1B0E943C038C2F8A5C9F
S1130AC00E94490389E999E521E081509040204042
S1130AD0E1F700002196C532D105F1F619E5C1E030
S1130AE0D0E0CA31D1051CF4812F0E94EE028C2F74
S1130AF08F5C0E94080386E696EE20E081509040C9
S1130B002040E1F721961250113159F78FEF9FE7FA
S1130B1026E1815090402040E1F700C00000C1E090
S1130B20D0E017EAC330D10524F48C2F845A0E94F4
S1130B30C702C231D10584F48C2F875B0E94220343
S1130B408C2F845B0E942F038C2F885A0E941503DC
S1130B508C2F815B0E94E102C930D10524F4812FDE
S1130B608C1B0E94FB028C2F805C0E94BA0229E934
S1130B7089E591E0215080409040E1F70000219602
S1130B80C531D10579F62FEF8FE796E121508040EA
S1130B909040E1F700C00000C1E0D0E015E58C2FE3
S1130BA08B5A0E94BA028C2F825A0E94C7028C2F41
S1130BB0865A0E9422038C2F835A0E942F03C83026
S1130BC0D10524F4812F8C1B0E94080389E999E53F
S1130BD021E0815090402040E1F700002196C2318D
S1130BE0D105E9F68FEF9FE726E181509040204040
S1130BF0E1F700C0000081E70E9422030F2EFDE907
S1130C00BF2EF02D0F2EF9E5CF2EF02D0F2EF8E587
S1130C10DF2EF02D6894EE24E1F8F12CC1E0D0E051
S1130C200F2EF0E69F2EF02D0F2EFEE27F2EF02DDC
S1130C300F2EF6E88F2EF02D08C021968FEFE81ABC
S1130C40F80AD394CA94BA94BA94AC2E892D8C1B06
S1130C500E94E1028E01C132D1051CF48B2D0E9449
S1130C60FB020731110544F4872D8A190E94EE0214
S1130C70882D8A190E94D4020830110524F48EE4C8
S1130C808A0D0E9408030431110524F489E68A0DB3
S1130C900E9415030F301105A1F481E60E94BA02E7
S1130CA083E70E94C7028D2D0E943C038C2D0E9475
S1130CB0490326E686EE90E0215080409040E1F71B
S1130CC0BCCF8D2D0E943C038C2D0E94490326E647
S1130CD086EE90E0215080409040E1F721E3E21657
S1130CE0F1040CF4AACF8FEF9FE726E181509040E6
S1130CF02040E1F700C00000C1E0D0E008E110E7C7
S1130D00C630D10524F4802F8C1B0E94EE02CF3014
S1130D10D10524F4812F8C1B0E94D40289E999E522
S1130D2021E0815090402040E1F700002196CF302F
S1130D30D10531F78FEF9FE726E1815090402040A5
S1130D40E1F700C00000DF91CF911F910F91FF9058
S1130D50EF90DF90CF90BF90AF909F908F907F9057
S1130D6008950E948A030E94940385E70E943C032D
S1130D708CE30E9449032FEF8FEF99E521508040C7
S1130D809040E1F700C000000E94D0030E942504B7
S1090D90FDCFF894FFCF33
S9030000FC
