S0100000626173655F706F732E73726563C8
S11300000C9472000C948F000C948F000C948F004D
S11300100C948F000C948F000C948F000C948F0020
S11300200C948F000C948F000C948F000C948F0010
S11300300C948F000C948F000C948F000C948F0000
S11300400C948F000C94E1000C941B010C944F0150
S11300500C9483010C948F000C948F000C948F00EB
S11300600C948F000C948F000C948F000C948F00D0
S11300700C948F000C948F000C948F000C948F00C0
S11300800C948F000C948F000C948F000C948F00B0
S11300900C948F000C948F000C948F000C948F00A0
S11300A00C948F000C948F000C948F000C948F0090
S11300B00C948F000C948F000C948F000C948F0080
S11300C00C948F000C948F000C948F000C948F0070
S11300D00C948F000C948F000C948F000C948F0060
S11300E00C948F0011241FBECFEFD1E2DEBFCDBF31
S11300F012E0A0E0B2E0E0E4F6E002C005900D9268
S1130100A030B107D9F722E0A0E0B2E001C01D920F
S1130110A831B207E1F70E9417030C941E030C9454
S113012000008FEF8DB91EB883E084B915B8089527
S113013070980895709A089571980895719A089521
S113014072980895729A089573980895739A089509
S113015074980895749A089575980895759A0895F1
S113016076980895769A089577980895779A0895D9
S113017028980895289A089529980895299A089501
S1130180E1E8F0E0108280E78093850021E020938D
S113019084009FE8909389008FEF80938800909368
S11301A08B0080938A0010928D0010928C009093A3
S11301B08700809386001092800010928200208332
S11301C008951F920F920FB60F9211242F933F930D
S11301D04F935F936F937F938F939F93AF93BF934B
S11301E0EF93FF9380910302811102C00E949C004F
S11301F080910302813011F40E94A00080910302D7
S1130200823011F40E94980080910302833011F42B
S11302100E94BC00FF91EF91BF91AF919F918F918C
S11302207F916F915F914F913F912F910F900FBEEE
S11302300F901F9018951F920F920FB60F921124D2
S11302402F933F934F935F936F937F938F939F93DA
S1130250AF93BF93EF93FF9380910302811102C088
S11302600E94A40080910302813011F40E94A8002E
S113027080910302823011F40E94B400FF91EF9147
S1130280BF91AF919F918F917F916F915F914F91AA
S11302903F912F910F900FBE0F901F9018951F92B2
S11302A00F920FB60F9211242F933F934F935F93A6
S11302B06F937F938F939F93AF93BF93EF93FF932A
S11302C080910302811102C00E94AC00809103025C
S11302D0813011F40E94B00080910302823011F445
S11302E00E94B800FF91EF91BF91AF919F918F91C0
S11302F07F916F915F914F913F912F910F900FBE1E
S11303000F901F9018951F920F920FB60F92112401
S11303102F933F934F935F936F937F938F939F9309
S1130320AF93BF93EF93FF9380E78093850081E0C1
S113033080938400809103028F5F8093030288304E
S113034018F01092030202C081111EC00E949E0088
S11303500E94A6000E94AE0080911302809389003F
S113036080911102809388008091040280938B0015
S11303708091080280938A0080910A0280938D0004
S11303808091090280938C00809103028130F1F402
S11303900E94A2000E94AA000E94B200809106025C
S11303A080938900809114028093880080910B02CD
S11303B080938B0080910C0280938A0080911002BC
S11303C080938D008091150280938C0080910302AC
S11303D08230F1F40E949A000E94B6000E94BA0092
S11303E080910D0280938900809116028093880089
S11303F080910F0280938B008091050280938A0084
S11304008091170280938D008091070280938C0065
S113041080910302833051F40E94BE008091120245
S11304208093890080910E0280938800FF91EF9160
S1130430BF91AF919F918F917F916F915F914F91F8
S11304403F912F910F900FBE0F901F9018958091A0
S11304500002853B18F084EB809300028091000237
S11304602BE8829FC001112482559047809301029A
S1130470909302020895809300020E9427028091C3
S1130480020280930D028091010280931602089566
S1130490809300020E94270280910202809313023B
S11304A080910102809311020895809300020E94BA
S11304B027028091020280930602809101028093B8
S11304C014020895809300020E9427028091020280
S11304D0809304028091010280930802089580931E
S11304E000020E9427028091020280930B028091F5
S11304F0010280930C020895809300020E94270257
S11305008091020280930A02809101028093090281
S11305100895809300020E94270280910202809332
S113052010028091010280931502089580930002C5
S11305300E9427028091020280930F02809101029F
S1130540809305020895809300020E9427028091FF
S1130550020280931702809101028093070208959A
S1130560809300020E94270280910202809312026B
S11305708091010280930E020895F8940E949100E4
S11305800E94C0008FE080936F00789408958DE5F9
S11305900E943B028AE50E9448028FE70E945502AE
S11305A087E30E94620289E90E946F0281E20E944D
S11305B07C0282E40E94890283E70E9496028AE513
S11305C00E94A3028AE50E94B0022FEF8FEF93EB03
S11305D0215080409040E1F700C0000008958DE56F
S11305E00E943B028AE50E9448028CE50E94550263
S11305F08AE50E9462028DE50E946F028DE50E94E9
S11306007C0280E60E94890285E50E9496028AE5C2
S11306100E94A3028AE50E94B0022FEF8FEF93EBB2
S1130620215080409040E1F700C0000008950E94EE
S1130630BD020E94EF020E94C702FFCFF894FFCFD1
S9030000FC
