:100000000C9472000C948F000C948F000C948F0051
:100010000C948F000C948F000C948F000C948F0024
:100020000C948F000C948F000C948F000C948F0014
:100030000C948F000C948F000C948F000C948F0004
:100040000C948F000C94F8000C943E010C947E01EB
:100050000C94BE010C948F000C948F000C948F00B4
:100060000C948F000C948F000C948F000C948F00D4
:100070000C948F000C948F000C948F000C948F00C4
:100080000C948F000C948F000C948F000C948F00B4
:100090000C948F000C948F000C948F000C948F00A4
:1000A0000C948F000C948F000C948F000C948F0094
:1000B0000C948F000C948F000C948F000C948F0084
:1000C0000C948F000C948F000C948F000C948F0074
:1000D0000C948F000C948F000C948F000C948F0064
:1000E0000C948F0011241FBECFEFD1E2DEBFCDBF35
:1000F00012E0A0E0B2E0EEE7FAE002C005900D9257
:10010000A030B107D9F722E0A0E0B2E001C01D9213
:10011000A432B207E1F70E9427050C943D050C9428
:1001200000008FEF8DB91EB884B915B80895709886
:100130000895709A089571980895719A0895729823
:100140000895729A089573980895739A089574980B
:100150000895749A089575980895759A08957698F3
:100160000895769A089577980895779A089528982B
:100170000895289A089529980895299A08952A9803
:1001800008952A9A08952B9808952B9A08952C98EB
:1001900008952C9A08952D9808952D9A08952E98D3
:1001A00008952E9A08952F9808952F9A0895E1E8BA
:1001B000F0E0108280E78093850021E020938400A6
:1001C0009FE8909389008FEF8093880090938B0035
:1001D00080938A0010928D0010928C00909387007B
:1001E00080938600109280001092820020830895F0
:1001F0001F920F920FB60F9211242F933F934F939C
:100200005F936F937F938F939F93AF93BF93EF937E
:10021000FF9380910302811102C00E949B00809194
:100220000302813011F40E949F008091030282300A
:1002300011F40E94970080910302833011F40E9410
:10024000BB0080910302843011F40E94C7008091AA
:100250000302853011F40E94D300FF91EF91BF910A
:10026000AF919F918F917F916F915F914F913F914E
:100270002F910F900FBE0F901F9018951F920F9205
:100280000FB60F9211242F933F934F935F936F9369
:100290007F938F939F93AF93BF93EF93FF9380913F
:1002A0000302811102C00E94A300809103028130E9
:1002B00011F40E94A70080910302823011F40E9481
:1002C000B30080910302833011F40E94BF0080913B
:1002D0000302843011F40E94CB00FF91EF91BF9193
:1002E000AF919F918F917F916F915F914F913F91CE
:1002F0002F910F900FBE0F901F9018951F920F9285
:100300000FB60F9211242F933F934F935F936F93E8
:100310007F938F939F93AF93BF93EF93FF938091BE
:100320000302811102C00E94AB0080910302813060
:1003300011F40E94AF0080910302823011F40E94F8
:10034000B70080910302833011F40E94C3008091B2
:100350000302843011F40E94CF00FF91EF91BF910E
:10036000AF919F918F917F916F915F914F913F914D
:100370002F910F900FBE0F901F9018951F920F9204
:100380000FB60F9211242F933F934F935F936F9368
:100390007F938F939F93AF93BF93EF93FF9380E7E8
:1003A0008093850081E080938400809103028F5FB9
:1003B00080930302883018F01092030202C081116A
:1003C0001EC00E949D000E94A5000E94AD00809169
:1003D0001C0280938900809119028093880080918B
:1003E000040280938B0080910D0280938A0080919B
:1003F000100280938D0080910E0280938C0080917A
:1004000003028130F1F40E94A1000E94A9000E9421
:10041000B10080910B028093890080911E0280932D
:1004200088008091120280938B0080911302809348
:100430008A008091180280938D0080912002809321
:100440008C00809103028230F1F40E9499000E9496
:10045000B5000E94B90080911402809389008091B8
:100460002102809388008091170280938B008091F5
:10047000090280938A008091230280938D008091ED
:100480000C0280938C00809103028330F1F40E946F
:10049000BD000E94C1000E94C50080911A02809395
:1004A00089008091150280938800809108028093D2
:1004B0008B008091060280938A00809116028093BF
:1004C0008D0080911B0280938C0080910302843008
:1004D000F1F40E94C9000E94CD000E94D1008091D9
:1004E00022028093890080910F028093880080917E
:1004F0000A0280938B0080911F0280938A00809172
:100500001D0280938D008091110280938C00809158
:100510000302853051F40E94D50080910702809338
:1005200089008091050280938800FF91EF91BF912F
:10053000AF919F918F917F916F915F914F913F917B
:100540002F910F900FBE0F901F9018958091000271
:10055000853B18F084EB80930002809100022BE829
:10056000829FC0011124825590478093010290938D
:1005700002020895809300020E94A6028091020266
:100580008093140280910102809321020895809348
:1005900000020E94A6028091020280931C028091B8
:1005A0000102809319020895809300020E94A6021E
:1005B0008091020280930B028091010280931E02BF
:1005C0000895809300020E94A60280910202809307
:1005D00004028091010280930D020895809300022D
:1005E0000E94A60280910202809312028091010271
:1005F000809313020895809300020E94A6028091C6
:100600000202809310028091010280930E020895ED
:10061000809300020E94A602809102028093180239
:1006200080910102809320020895809300020E942D
:10063000A6028091020280931702809101028093AA
:1006400009020895809300020E94A602809102028E
:10065000809323028091010280930C02089580937D
:1006600000020E94A6028091020280931A028091E9
:100670000102809315020895809300020E94A60251
:100680008091020280930802809101028093060209
:100690000895809300020E94A60280910202809336
:1006A00016028091010280931B020895809300023C
:1006B0000E94A60280910202809322028091010290
:1006C00080930F020895809300020E94A6028091F9
:1006D000020280930A028091010280931F02089512
:1006E000809300020E94A6028091020280931D0264
:1006F00080910102809311020895809300020E946C
:10070000A6028091020280930702809101028093E9
:1007100005020895F8940E9491000E94D7008FE08E
:1007200080936F00789408958AE50E94BA028EE55E
:100730000E94C70282E60E94D40284E50E94E10280
:1007400083E10E94EE0287EA0E94FB0285E50E9497
:10075000080388E50E9415038AE50E9422038DE5BF
:100760000E942F0387E50E943C038AE50E9449030B
:1007700086E90E9456038EE10E9463038AE50E9487
:1007800070038AE50E947D032FEF8FEF93EB2150DA
:1007900080409040E1F700C0000008950F931F9340
:1007A000CF93DF93CBE58C2F0E94BA0284E08C0FAD
:1007B0000E94C7028C2F0E94220383E08C0F0E94AC
:1007C0002F0329E989E591E0215080409040E1F72D
:1007D0000000CF5FCC3639F72FEF8FEF9CE221502E
:1007E00080409040E1F700C0000081E70E942203B2
:1007F000C2E0D0E015EA05E502C012502196802F34
:100800008C1B0E94E1028C2F895A0E941503812FB4
:100810000E94FB0286E696EE20E081509040204048
:10082000E1F7C730D10539F483E70E94C70281E6BA
:100830000E94BA02E2CFC532D105FCF288E50E94DF
:10084000D4028FEF9FEF2CE2815090402040E1F7DF
:1008500000C0000082E60E94D402D1E6C1E31CEA97
:100860008C2F0E94E102812F8C1B0E9415038D2F7B
:100870000E94FB0286E696EE20E0815090402040E8
:10088000E1F7CF5FDE5FC53559F78FEF9FEF2CE2C1
:10089000815090402040E1F700C000008FE60E94A8
:1008A000C7028BE60E9422038BE60E94BA02CAE6C8
:1008B0008C2F0E94BA0284E08C0F0E94C7028C2FFA
:1008C0000E94220383E08C0F0E942F0389E999E59F
:1008D00021E0815090402040E1F70000C150C9352F
:1008E00039F78FEF9FEF2CE2815090402040E1F7E5
:1008F00000C000008C2F0E94BA0284E08C0F0E947E
:10090000C7028C2F0E94220383E08C0F0E942F03CA
:1009100089E999E521E0815090402040E1F700000D
:10092000C150CA3439F78FEF9FEF2CE281509040CD
:100930002040E1F700C000008AE40E942F03C2E0DB
:10094000D0E015E106E502C01E5F21968C2F8F597D
:100950000E94D402802F8C1B0E940803812F0E94CA
:10096000EE0226E686EE90E0215080409040E1F7CE
:10097000C730D10539F487E40E94BA0287E50E94A6
:10098000C702E2CFC532D105FCF28EE50E94E1023A
:100990002FEF8FEF9CE2215080409040E1F700C0A4
:1009A000000084E50E94E102D9E5C5E817EB8C2F31
:1009B0000E94D402812F8C1B0E9408038D2F0E945D
:1009C000EE0229E989E591E0215080409040E1F76D
:1009D0000000C150D250C13651F72FEF8FEF9CE28B
:1009E000215080409040E1F700C000008BE40E945D
:1009F000BA028EE40E942F038FE40E94C702CCE467
:100A00008C2F0E94BA0284E08C0F0E94C7028C2FA8
:100A10000E94220383E08C0F0E942F0329E989E5BD
:100A200091E0215080409040E1F70000CF5FCB354E
:100A300039F72FEF8FEF9CE2215080409040E1F793
:100A400000C00000DF91CF911F910F9108950E9487
:100A50008A030E9494038AE70E943C0387E30E9472
:100A600049032FEF8FEF99E5215080409040E1F747
:0E0A700000C000000E94CE03FDCFF894FFCF1F
:00000001FF
