:100000000C9472000C948F000C948F000C948F0051
:100010000C948F000C948F000C948F000C948F0024
:100020000C948F000C948F000C948F000C948F0014
:100030000C948F000C948F000C948F000C948F0004
:100040000C948F000C94E1000C941B010C944F0154
:100050000C9483010C948F000C948F000C948F00EF
:100060000C948F000C948F000C948F000C948F00D4
:100070000C948F000C948F000C948F000C948F00C4
:100080000C948F000C948F000C948F000C948F00B4
:100090000C948F000C948F000C948F000C948F00A4
:1000A0000C948F000C948F000C948F000C948F0094
:1000B0000C948F000C948F000C948F000C948F0084
:1000C0000C948F000C948F000C948F000C948F0074
:1000D0000C948F000C948F000C948F000C948F0064
:1000E0000C948F0011241FBECFEFD1E2DEBFCDBF35
:1000F00012E0A0E0B2E0EAE9F8E002C005900D925B
:10010000A030B107D9F722E0A0E0B2E001C01D9213
:10011000A831B207E1F70E94EF020C944B040C9453
:1001200000008FEF8DB91EB883E084B915B808952B
:1001300070980895709A089571980895719A089525
:1001400072980895729A089573980895739A08950D
:1001500074980895749A089575980895759A0895F5
:1001600076980895769A089577980895779A0895DD
:1001700028980895289A089529980895299A089505
:10018000E1E8F0E0108280E78093850021E0209391
:1001900084009FE8909389008FEF8093880090936C
:1001A0008B0080938A0010928D0010928C009093A7
:1001B0008700809386001092800010928200208336
:1001C00008951F920F920FB60F9211242F933F9311
:1001D0004F935F936F937F938F939F93AF93BF934F
:1001E000EF93FF9380910302811102C00E949C0053
:1001F00080910302813011F40E94A00080910302DB
:10020000823011F40E94980080910302833011F42F
:100210000E94BC00FF91EF91BF91AF919F918F9190
:100220007F916F915F914F913F912F910F900FBEF2
:100230000F901F9018951F920F920FB60F921124D6
:100240002F933F934F935F936F937F938F939F93DE
:10025000AF93BF93EF93FF9380910302811102C08C
:100260000E94A40080910302813011F40E94A80032
:1002700080910302823011F40E94B400FF91EF914B
:10028000BF91AF919F918F917F916F915F914F91AE
:100290003F912F910F900FBE0F901F9018951F92B6
:1002A0000F920FB60F9211242F933F934F935F93AA
:1002B0006F937F938F939F93AF93BF93EF93FF932E
:1002C00080910302811102C00E94AC008091030260
:1002D000813011F40E94B00080910302823011F449
:1002E0000E94B800FF91EF91BF91AF919F918F91C4
:1002F0007F916F915F914F913F912F910F900FBE22
:100300000F901F9018951F920F920FB60F92112405
:100310002F933F934F935F936F937F938F939F930D
:10032000AF93BF93EF93FF9380E78093850081E0C5
:1003300080938400809103028F5F80930302883052
:1003400018F01092030202C081111EC00E949E008C
:100350000E94A6000E94AE00809113028093890043
:1003600080911102809388008091040280938B0019
:100370008091080280938A0080910A0280938D0008
:100380008091090280938C00809103028130F1F406
:100390000E94A2000E94AA000E94B2008091060260
:1003A00080938900809114028093880080910B02D1
:1003B00080938B0080910C0280938A0080911002C0
:1003C00080938D008091150280938C0080910302B0
:1003D0008230F1F40E949A000E94B6000E94BA0096
:1003E00080910D028093890080911602809388008D
:1003F00080910F0280938B008091050280938A0088
:100400008091170280938D008091070280938C0069
:1004100080910302833051F40E94BE008091120249
:100420008093890080910E0280938800FF91EF9164
:10043000BF91AF919F918F917F916F915F914F91FC
:100440003F912F910F900FBE0F901F9018958091A4
:100450000002853B18F084EB80930002809100023B
:100460002BE8829FC001112482559047809301029E
:10047000909302020895809300020E9427028091C7
:10048000020280930D02809101028093160208956A
:10049000809300020E94270280910202809313023F
:1004A00080910102809311020895809300020E94BE
:1004B00027028091020280930602809101028093BC
:1004C00014020895809300020E9427028091020284
:1004D0008093040280910102809308020895809322
:1004E00000020E9427028091020280930B028091F9
:1004F000010280930C020895809300020E9427025B
:100500008091020280930A02809101028093090285
:100510000895809300020E94270280910202809336
:1005200010028091010280931502089580930002C9
:100530000E9427028091020280930F0280910102A3
:10054000809305020895809300020E942702809103
:10055000020280931702809101028093070208959E
:10056000809300020E94270280910202809312026F
:100570008091010280930E020895F8940E949100E8
:100580000E94C0008FE080936F00789408958AE500
:100590000E943B028EE50E94480282E60E945502BC
:1005A00084E50E94620283E10E946F0287EA0E9452
:1005B0007C0285E50E94890288E50E9496028AE510
:1005C0000E94A3028DE50E94B0022FEF8FEF93EB04
:1005D000215080409040E1F700C0000008950E9443
:1005E000BD020E94C702CBE58C2F0E943B0284E033
:1005F0008C0F0E9448028C2F0E94A30283E08C0F74
:100600000E94B0022FEF8FE392E021508040904093
:10061000E1F700C00000CF5FCC3631F72FEF8FEF4E
:100620009CE2215080409040E1F700C0000080E74C
:100630000E94A302C2E0D0E015EA05E502C0125014
:100640002196802F8C1B0E9462028C2F895A0E9457
:100650009602812F0E947C0289E999E521E0815070
:1006600090402040E1F70000C730D10521F483E736
:100670000E944802E4CFC532D1050CF381E60E9406
:100680003B0288E50E9455028FEF9FEF29E58150DC
:1006900090402040E1F700C0000082E60E94550231
:1006A000D1E6C1E31CEA8C2F0E946202812F8C1BD1
:1006B0000E9496028D2F0E947C0289E999E521E033
:1006C000815090402040E1F70000CF5FDE5FC535EC
:1006D00051F78FEF9FEF29E5815090402040E1F7DF
:1006E00000C000008FE60E9448028BE60E94A30231
:1006F0008BE60E943B02CAE68C2F0E943B0284E0FC
:100700008C0F0E9448028C2F0E94A30283E08C0F62
:100710000E94B0028FEF9FE322E081509040204082
:10072000E1F700C00000C150C93531F78FEF9FEFEE
:1007300029E5815090402040E1F700C000008C2F57
:100740000E943B0284E08C0F0E9448028C2F0E9482
:10075000A30283E08C0F0E94B0028FEF9FE322E0A0
:10076000815090402040E1F700C00000C150CA34E1
:1007700031F78FEF9FEF2CE2815090402040E1F75E
:1007800000C000008BE40E94B002C2E0D0E015E19E
:1007900006E502C01E5F21968C2F8F590E945502DC
:1007A000802F8C1B0E948902812F0E946F0229E9F1
:1007B00089E591E0215080409040E1F70000C7308A
:1007C000D10521F487E40E943B02E4CFC532D10574
:1007D0000CF389E50E9448028EE50E9462022FEF29
:1007E0008FEF99E5215080409040E1F700C0000074
:1007F00084E50E946202D9E5C5E817EB8C2F0E94C0
:100800005502812F8C1B0E9489028D2F0E946F023E
:1008100029E989E591E0215080409040E1F700000E
:10082000C150D250C13651F72FEF8FEF99E52150CB
:1008300080409040E1F700C000008BE40E943B0242
:100840008EE40E94B0028FE40E944802CCE48C2F18
:100850000E943B0284E08C0F0E9448028C2F0E9471
:10086000A30283E08C0F0E94B0022FEF8FE392E08F
:10087000215080409040E1F700C00000CF5FCB35B1
:1008800031F72FEF8FEF99E5215080409040E1F74D
:0A08900000C00000FFCFF894FFCF76
:00000001FF
